:0300000002037088
:0C037000787FE4F6D8FD7581640203B7C5
:100576007FF47E0112075B7F807E2512086D1209CB
:10058600F51207F9120A301203FC1207DF120AA548
:10059600120A6E1203FC12000312000E7E0A7F88F6
:1005A600D2087BC87A007D0E7C061205EE7E0A7F95
:1005B600A2D2087BC87A007D407C061205EE7E0931
:1005C6007FD2D2087BE87A037DB87C061205EE7EE0
:1005D600087F00D2087BD07A077D587C071205EE8B
:0805E600120A9C12065880FB6A
:030A980001220038
:10065800E4F508E50875F008A4242DF8E66049E5F6
:100668000875F008A4242CF8E6D39400403AE5086D
:1006780075F008A42426F8E6FE08E6AA06F9120290
:1006880087E50875F008A4242CF816E50875F00825
:10069800A4242AF8E6FE08E64E700DE50875F00871
:1006A800A42426F8E4F608F60508E508C3940440EF
:0406B800A202005A40
:0405EE008E088F09DB
:1005F200E4FFEF75F008A42426F8E6F58308E64543
:10060200836009EFC3940450030F80E6BF040675AC
:1006120022017F0422EF75F008A42426F8A6080818
:10062200A609EF75F008A42428F8A60408A605EF89
:1006320075F008A4242AF8A60208A603A208E43347
:10064200FEEF75F008A4242DF8A606EF75F008A4B5
:05065200242CF8E4F681
:010657002280
:10071200EF75F008A42426F8E6FC08E64C7007758D
:100722002202D2088002C208EF75F008A42426F83B
:10073200E4F608F6EF75F008A42428F8E4F608F6C3
:10074200EF75F008A4242AF8E4F608F6EF75F0082D
:08075200A4242CF8E4F6A2082F
:01075A00227C
:01005A002283
:040A94004387012271
:04075B008E088F096C
:10075F00E4F50EAF0E120712050EE50EC39404401A
:10076F00F2AE08AF097C007D0B12028DE47B0CFA10
:10077F00F9F81201E78F0D8E0C8D0B8C0AC3E49FD5
:10078F00FFE49EF5558F575389F0438901120A6391
:02079F00D2A9DD
:0107A1002235
:030A9C00D2AF22B4
:0B0A6300C28C85578A85558CD28C22EE
:03000B0002047D6F
:10047D00C0E0C0F0C0D075D000C000C004C005C041
:01048D000767
:10048E00120A63B2A4E4FFEF75F008A42426F8E67E
:10049E00FC08E64C6046EF75F008A42428F8E6FC4C
:1004AE0008E64C7028EF75F008A4242CF806EF75BA
:1004BE00F008A4242AF8E6FC08E6FD4C601EEF7551
:1004CE00F008A42428F8A60408A605800FEF75F0FE
:1004DE0008A42428F808E616187001160FBF04A702
:0F04EE00D007D005D004D000D0D0D0F0D0E0326D
:10086D005387BF53A2BF75985A53890F438920AB45
:10087D0007AA06E4F9F87F807E70FDFC1201E712ED
:10088D0002798F8B8F8DD28EC299D2ACE4F51BF588
:02089D001C221B
:030023000202BA1C
:1002BA00C0E0C0F0C083C082C0D075D000C000C00A
:1002CA0001C002C003C004C005C006C00730987B45
:1002DA00C298751A057412251AF8E6FF7413251ABE
:1002EA00F8A607D51AEF85991320A518051BE51B53
:1002FA00C394064056751B00D200751E007F1A1261
:10030A000A9F8047903000E4936518703EA3936576
:10031A00177038A39365167032A3936515702CA3D2
:10032A009365147026A39365137020F51E7F1A1225
:10033A000A9F300611C206751E007F1A120A9F30E4
:10034A008109D205800530A502D201D007D006D096
:10035A0005D004D003D002D001D000D0D0D082D0B2
:06036A0083D0F0D0E03268
:1009F50043B10253B2FDE4F560F55FC204C20522BE
:060A88001209AE02095A3A
:1009AE00300409308106200503D20622208102C2BE
:0209BE00052210
:10099B0075AF30C2AF75C7AA75C755439F01D2AFAC
:0309AB00020A1429
:1009870075AF30120A14C2AF75C7AA75C755539F02
:04099700FED2AF22BB
:0E0A1400C2AF75C7AA75C75543A401D2AF2261
:100943008E088F0912099B75AF22E508F5A7850963
:07095300A6120A1402098735
:10003E008E088F098D0A12099B75AF21E508F5A769
:0C004E008509A6850AAE120A1402098773
:0707F90043B52053B6DF22D7
:10095A0020A503120A7820A50D30000A7F1B120A6F
:07096A009F1207A2C2002248
:1007A2007F007E30120943AD187F007E3012003E7A
:1007B200AD177F017E3012003EAD167F027E3012F1
:1007C200003EAD157F037E3012003EAD147F047EE5
:0D07D2003012003EAD137F057E3002003E68
:0D0A3000C294D2A0C2A1E4F51E751F0A22D7
:040837008F088D0990
:10083B00D2947F1E7E4C1209E41209C0E4F50AE53E
:10084B000AC395085016D2A17FA47EFF1209E4C2F9
:10085B00A17FA47EFF1209E4050A80E3E4F509F504
:01086B001D6F
:01086C002269
:030A9F008F1D2286
:030AA20002005EF1
:1009C000C2A07F037EEE1209E4D2A07F037EEE0276
:0209D00009E438
:10005E00308717E51D641A6011051EE51ED39464E2
:10006E00500221AAE4F51EC29422E4F51EC294E5C4
:10007E001D14B42300400221AA90009125E05002E5
:10008E0005837301D701DD01E301E901EF01F501FC
:10009E00FB21012107210D21132119211F212521CA
:1000AE002B21312137213D21432149214F2155213A
:1000BE005B21612167216D21732179217F218521AA
:1000CE008B21912197219D21A37D057F0121A77D64
:1000DE000F7F0221A77D2D7F0321A77D197F04218C
:1000EE00A77D0A7F0521A77D0A7F0621A77D057FB3
:1000FE000721A77D147F0821A77D0A7F0921A77DEF
:10010E000F7F0A21A77D057F0B21A77D057F0C217F
:10011E00A77D057F0D21A77D057F0E807C7D057F48
:10012E000F80767D057F1080707D057F11806A7D42
:10013E00057F1280647D057F13805E7D057F1480B0
:10014E00587D057F1580527D237F16804C7D147F50
:10015E001780467D057F1880407D057F19803A7D8A
:10016E000A7F1A80347D0F7F1B802E7D0A7F1C80B4
:10017E00287D147F1D80227D057F1E801C7D057FBE
:10018E001F80167D057F2080107D057F21800A7DD2
:0D019E00057F2280047D057F231208372293
:1009E4008E618F620562E56270020561456170F493
:0109F40022E0
:0D0A3D00000000000000000000000000228A
:100912008F088D09120A057F381208EFAF081208F6
:09092200EFAF091208EF020A57B9
:0208C8008F0F90
:1008CA00120A057F381208EFAF0F1208EF120A0555
:1008DA007F391208EF12089F8F10D209120A2212CA
:0408EA000A57AF10EA
:0108EE0022E7
:0208EF008F1167
:1008F100E4F512E51125E0F5119293D292120A3D29
:10090100C292120A3D0512E512C3940840E5020A9B
:010911004A9B
:10089F00E4F512D293F511E51225E0F512D292127A
:1008AF000A3DA293E4334212C292120A3D0511E5AA
:0808BF0011C3940840E1AF12DF
:0108C700220E
:0F0A0500D293D292120A3DC293120A3DC292229C
:0C0A5700C293D292120A3DD293020A3DD3
:0E0A2200A2099293D292120A3DC292020A3D9C
:0D0A4A00D292120A3DA293C292120A3D22DE
:1007DF00C20743EC1843EB1A53EAE543E91AD2E98F
:0A07EF00E4F55AF559F55BC2062245
:03003B000204FDBF
:1004FD00C0E0C0F0C083C082C0D075D000C000C0C5
:10050D0001C002C003C004C005C006C00753EAE520
:10051D00755A00755900755B007F0C1208C88F5A0B
:10052D00E55A30E2117F161208C88F59E55930E7A8
:10053D0005300402D206E55A30E30F7F221208C8B7
:10054D008F5BE55B30E703120A78D20BD207D00739
:10055D00D006D005D004D003D002D001D000D0D029
:09056D00D082D083D0F0D0E0323E
:010AA500222E
:1009D200120A8E30060B120A787F07120A9FE4F57C
:0209E2005C2295
:060A8E00300702C207223E
:10000E0043F64043B14053B2BFD2FAC2F9D2F8D24E
:05001E00AE43E1802269
:10092B00C2FCD2FBC3E54F94AAE54E94034008E406
:08093B00F51E7F1A120A9F222B
:03005B000206BCDE
:1006BC00C0E0C0D075D000C000C006C007C2FCC2EC
:1006CC00FBAFF87553008F54E554AE537806CEC388
:1006DC0013CE13D8F9F5548E53AFE27550008F51E9
:1006EC00E551AE507802C333CE33CED8F92554F54C
:1006FC0051E5533EF550F54E85514FD007D006D0FD
:06070C0000D0D0D0E03265
:0A0A6E00E4F55DF55ED20BF55C22A5
:10080000055DE55DC3943C4011E4F55D055EE55E84
:10081000943C4003E4F55E12092B12097112002684
:10082000300B13055CE55CD3940A400AE4F55CC226
:070830000BC205120A94221D
:10097100300112C201B2043004047F1D80027F17CE
:06098100120A9FC20522CC
:1003FC007D087F2A1209127D037F2B1209127D2A98
:10040C007F211209127D107F231209127D107F2487
:10041C001209127D107F251209127D307F261209D8
:10042C00127D287F271209127DC87F281209127DA0
:10043C00F87F151209127D107F171209127D287F83
:10044C00181209127D047F2D1209127D047F2E12C1
:10045C0009127D0C7F2D1209127D0C7F2E120912B0
:10046C007F2A1208C88F63436301AD637F2A020998
:01047C00126D
:08000300E4F564D285C29122EC
:100026002085110564E564D394094008120A8030DE
:050036000502C20522D5
:080A7800E4F564C285D291226D
:080A8000E4F564D285C2912265
:10037C00020576E493A3F8E493A34003F68001F21C
:10038C0008DFF48029E493A3F85407240CC8C33382
:10039C00C4540F4420C8834004F456800146F6DF51
:1003AC00E4800B0102040810204080900A98E47E3F
:1003BC00019360BCA3FF543F30E509541FFEE49346
:1003CC00A360010ECF54C025E060A840B8E493A30D
:1003DC00FAE493A3F8E493A3C8C582C8CAC583CA38
:1003EC00F0A3C8C582C8CAC583CADFE9DEE780BEF0
:010A9B00005A
:1001AB0075F008758200EF2FFFEE33FECD33CDCC0B
:1001BB0033CCC58233C5829BED9AEC99E58298408E
:1001CB000CF582EE9BFEED9AFDEC99FC0FD5F0D66B
:1001DB00E4CEFBE4CDFAE4CCF9A88222B800C1B995
:1001EB000059BA002DEC8BF084CFCECDFCE5F0CBD3
:1001FB00F97818EF2FFFEE33FEED33FDEC33FCEB0C
:10020B0033FB10D703994004EB99FB0FD8E5E4F9C6
:10021B00FA227818EF2FFFEE33FEED33FDEC33FCB3
:10022B00C933C910D7059BE99A4007EC9BFCE99AA7
:10023B00F90FD8E0E4C9FAE4CCFB2275F010EF2FEC
:10024B00FFEE33FEED33FDCC33CCC833C810D707EC
:10025B009BEC9AE899400AED9BFDEC9AFCE899F827
:0E026B000FD5F0DAE4CDFBE4CCFAE4C8F922BA
:0E027900C3E49FFFE49EFEE49DFDE49CFC2296
:060287008A838982E47302
:10028D00EC8EF0A4CCC5F0CCCDF8EFA4CEC5F02DFE
:10029D00FDE43CFCE8A42EC8C5F03DFDE43CFCEFBC
:0D02AD00A4FFE5F028FEE43DFDE43CFC224A
:00000001FF
