:030000000204D324
:0C04D300787FE4F6D8FD75816802051AF8
:1005DD007FF47E011208497F807E251208CD120A14
:1005ED00F9120B361209F912042F12094F1207FFD7
:1005FD00120AD112042F12000312000E7E0B7F3D42
:10060D00D20D7BC87A007D0E7C061206557E0B7FBF
:10061D0043D20D7BC87A007D407C061206557E0ABA
:10062D007F83D20D7BE87A037DB87C061206557E5A
:10063D00077F79D20D7BD07A077D587C071206553E
:08064D00120B3A1206BF80FBFC
:030B32000122009D
:1006BF00E4F508E50875F008A4242DF8E66049E58F
:1006CF000875F008A4242CF8E6D39400403AE50806
:1006DF0075F008A42426F8E6FE08E6AA06F9120229
:1006EF0091E50875F008A4242CF816E50875F008B4
:1006FF00A4242AF8E6FE08E64E700DE50875F0080A
:10070F00A42426F8E4F608F60508E508C394044087
:04071F00A202005AD8
:040655008E088F0973
:10065900E4FFEF75F008A42426F8E6F58308E645DB
:10066900836009EFC3940450030F80E6BF04067545
:1006790022017F0422EF75F008A42426F8A60808B1
:10068900A609EF75F008A42428F8A60408A605EF22
:1006990075F008A4242AF8A60208A603A20DE433DB
:1006A900FEEF75F008A4242DF8A606EF75F008A44E
:0506B900242CF8E4F61A
:0106BE002219
:10080000EF75F008A42426F8E6FC08E64C7007759E
:100810002202D20D8002C20DEF75F008A42426F842
:10082000E4F608F6EF75F008A42428F8E4F608F6D4
:10083000EF75F008A4242AF8E4F608F6EF75F0083E
:08084000A4242CF8E4F6A20D3B
:01084800228D
:01005A002283
:0407FB00438702220C
:040849008E088F097D
:10084D00E4F50EAF0E120800050EE50EC39404403C
:10085D00F2AE08AF097C007D0B120297E47B0CFA17
:10086D00F9F81201F18F0D8E0C8D0B8C0AC3E49FDC
:10087D00FFE49EF55A8F5C5389F0438901120B11E9
:02088D00D2A9EE
:01088F002246
:030B3A00D2AF2215
:0B0B1100C28C855C8A855A8CD28C2235
:03000B0002055F8C
:10055F00C0E0C0F0C0D075D000C000C004C005C05E
:01056F000784
:10057000120B11E4FFEF75F008A42426F8E6FC083E
:10058000E64C6046EF75F008A42428F8E6FC08E67F
:100590004C7028EF75F008A4242CF806EF75F008CD
:1005A000A4242AF8E6FC08E6FD4C601EEF75F0086E
:1005B000A42428F8A60408A605800FEF75F008A467
:0E05C0002428F808E616187001160FBF04A7CD
:0F05CE00D007D005D004D000D0D0D0F0D0E0328C
:1008CD005387BF53A2BF75985A53890F438920ABE5
:1008DD0007AA06E4F9F87F807E70FDFC1201F11283
:1008ED0002838F8B8F8DD28EC299D2ACE4F51BF51E
:0208FD001C22BB
:0300230002038253
:10038200C0E0C0F0C083C082C0D075D000C000C041
:1003920001C002C003C004C005C006C00730987285
:1003A200C298751A057412251AF8E6FF7413251AF5
:1003B200F8A607D51AEF859913200510051BE51B32
:1003C200C39406404D751B00D2008046903000E475
:1003D200936518703DA39365177037A393651670E4
:1003E20031A3936515702BA39365147025A39365B0
:1003F20013701F300403300819751E007F1A120B88
:1004020040755E00300806C208D20480053005023D
:10041200D201D007D006D005D004D003D002D0013B
:0D042200D000D0D0D082D083D0F0D0E03216
:0C0AF900E4F563F562C206C207C20522E4
:030B3D0002099812
:100A4D00300609308106200703D20822208102C218
:020A5D0007226E
:100A3A0075AF30C2AF75C7AA75C755439F01D2AF0C
:030A4A00020AB5E8
:100A260075AF30120AB5C2AF75C7AA75C755539FC1
:040A3600FED2AF221B
:0E0AB500C2AF75C7AA75C75543A401D2AF22C0
:1009E2008E088F09120A3A75AF22E508F5A7850924
:0709F200A6120AB5020A2655
:10003E008E088F098D0A120A3A75AF21E508F5A7C9
:0C004E008509A6850AAE120AB5020A2632
:040B3600E4F566225A
:10099800200503120B1C20050F30000C7F1B120BC7
:0909A80040120890C200D20522A1
:100A5F0020050E0566E566D3940A4005E4F566D2D7
:020A6F0005225E
:100890007F007E301209E2AD187F007E3012003EEC
:1008A000AD177F017E3012003EAD167F027E301202
:1008B000003EAD157F037E3012003EAD147F047EF6
:0D08C0003012003EAD137F057E3002003E79
:1009F90043B18053B27FC294C2A0C2A1E4F51E756F
:070A09001F0AC20B020A7173
:0407C5008F088D0903
:1007C900D2947F1E7E4C120A95120A71E4F50AE54D
:1007D9000AC395085016D2A17FA47EFF120A95C2BA
:1007E900A17FA47EFF120A95050A80E3E4F509F5C5
:0107F9001DE2
:0107FA0022DC
:030B40008F1D22E4
:030B430002005E4F
:100A7100D2A07F037EEE120A95C2A07F037EEE0212
:020A81000A95D4
:10005E00308719E51D641A6013D20B051EE51ED3F9
:10006E009464500221B4E4F51EC29422E4F51EC23B
:10007E0094300B05C20B120A71E51D14B423004017
:10008E000221B490009B25E0500205837301E1012B
:10009E00E701ED01F301F901FF2105210B211121EA
:1000AE0017211D21232129212F2135213B214121DA
:1000BE0047214D21532159215F2165216B2171214A
:1000CE0077217D21832189218F2195219B21A121BA
:1000DE00A721AD7D057F0121B17D0F7F0221B17D6D
:1000EE002D7F0321B17D197F0421B17D0A7F05216A
:1000FE00B17D0A7F0621B17D057F0721B17D147F79
:10010E000821B17D0A7F0921B17D0F7F0A21B17DC2
:10011E00057F0B21B17D057F0C21B17D057F0D2162
:10012E00B17D057F0E807C7D057F0F80767D057FFE
:10013E001080707D057F11806A7D057F1280647D41
:10014E00057F13805E7D057F1480587D057F1580A9
:10015E00527D237F16804C7D147F1780467D057F50
:10016E001880407D057F19803A7D0A7F1A80347D84
:10017E000F7F1B802E7D0A7F1C80287D147F1D80A3
:10018E00227D057F1E801C7D057F1F80167D057FCD
:10019E002080107D057F21800A7D057F2280047DD1
:0701AE00057F231207C522A3
:100A95008E648F650565E56570020564456470F4CF
:010AA500222E
:0D0ADF0000000000000000000000000022E8
:1009B1008F088D09120AA67F38120975AF0812092E
:0909C10075AF09120975020B055E
:020928008F0F2F
:10092A00120AA67F38120975AF0F120975120AA6A4
:10093A007F391209751208FF8F10D20E120AC312DC
:04094A000B05AF10DA
:01094E002286
:020975008F11E0
:10097700E4F512E51125E0F5119293D292120ADF00
:10098700C292120ADF0512E512C3940840E5020A73
:01099700EC73
:1008FF00E4F512D293F511E51225E0F512D292121A
:10090F000ADFA293E4334212C292120ADF0511E505
:08091F0011C3940840E1AF127E
:0109270022AD
:0F0AA600D293D292120ADFC293120ADFC29222B7
:0C0B0500C293D292120ADFD293020ADFE0
:0E0AC300A20E9293D292120ADFC292020ADFB2
:0D0AEC00D292120ADFA293C292120ADF22F8
:10094F00C20A43B11053B2EF43EC1843EB1A53EA08
:10095F00E543E91AD2E9E4F557F556F558F555F59B
:06096F0059C208C2092272
:03003B000202C4FA
:1002C400C0E0C0F0C083C082C0D075D000C000C000
:1002D40001C002C003C004C005C006C00753EAE55C
:1002E400D20F75570075560075550075580075592D
:1002F400007F0C1209288F57E55730E3117F221233
:1003040009288F58E55830E75A120B1C8055E557D9
:1003140030E2117F161209288F56E55630E7053072
:100324000602D208E55730E5147F1E1209288F55BE
:10033400E55530E608300605300902D208E55730A5
:10034400E41F7F101209288F59E55930E604D209B9
:100354008002C209E55954C0FFBF8005300602D2AD
:1003640008D20AD007D006D005D004D003D002D0DA
:0E03740001D000D0D0D082D083D0F0D0E032C3
:0107FF0022D7
:100A8300120B2C30080B120B1C7F07120B40E4F5E2
:020A93005E22E1
:060B2C00300A02C20A2299
:10000E0043F64043B14053B2BFD2FAC2F9D2F8D24E
:05001E00AE43E1802269
:1009CA00C2FCD2FBC3E54F94AAE54E94034008E467
:0809DA00F51E7F1A120B4022EA
:03005B0002072376
:10072300C0E0C0D075D000C000C006C007C2FCC284
:10073300FBAFF87553008F54E554AE537806CEC320
:1007430013CE13D8F9F5548E53AFE27550008F5181
:10075300E551AE507802C333CE33CED8F92554F5E4
:1007630051E5533EF550F54E85514FD007D006D095
:0607730000D0D0D0E032FE
:0E0AD100E4F55FF561D20FF55EC204F5602218
:10077900055FB2A4120A5FE55FC3943C4011E4F53A
:100789005F0561E561943C4003E4F5611209CA1211
:100799000A1030040E0560E560D394034005E4F5C2
:1007A90060C204300F15055EE55ED3940A400CE47F
:0C07B900F55EC20FC207120B24C294228E
:100A1000300112C201B2063006047F1D80027F172A
:060A2000120B40C2072288
:10042F007D087F2A1209B17D037F2B1209B17D2A26
:10043F007F211209B17D087F231209B17D087F2426
:10044F001209B17D087F251209B17D307F2612096F
:10045F00B17D287F271209B17DC87F281209B17D90
:10046F00E07F151209B17D107F171209B17D287F2A
:10047F00181209B17D167F1D1209B17D017F1F1260
:10048F0009B17D287F201209B17D407F111209B17A
:10049F007DC77F131209B17D3C7F141209B17D28EE
:1004AF007F121209B17D3C7F2D1209B17D3C7F2E49
:1004BF001209B17F2A1209288F67436701AD677F41
:0404CF002A0209B143
:08000300E4F568D285C28122F8
:100026002085110568E568D394094008120B243031
:050036000702C20722D1
:080B1C00E4F568C285D28122D4
:080B2400E4F568D285C28122CC
:1004DF000205DDE493A3F8E493A34003F68001F251
:1004EF0008DFF48029E493A3F85407240CC8C3331E
:1004FF00C4540F4420C8834004F456800146F6DFED
:10050F00E4800B0102040810204080900B32E47E3F
:10051F00019360BCA3FF543F30E509541FFEE493E1
:10052F00A360010ECF54C025E060A840B8E493A3A8
:10053F00FAE493A3F8E493A3C8C582C8CAC583CAD3
:10054F00F0A3C8C582C8CAC583CADFE9DEE780BE8B
:010B350000BF
:1001B50075F008758200EF2FFFEE33FECD33CDCC01
:1001C50033CCC58233C5829BED9AEC99E582984084
:1001D5000CF582EE9BFEED9AFDEC99FC0FD5F0D661
:1001E500E4CEFBE4CDFAE4CCF9A88222B800C1B98B
:1001F5000059BA002DEC8BF084CFCECDFCE5F0CBC9
:10020500F97818EF2FFFEE33FEED33FDEC33FCEB01
:1002150033FB10D703994004EB99FB0FD8E5E4F9BC
:10022500FA227818EF2FFFEE33FEED33FDEC33FCA9
:10023500C933C910D7059BE99A4007EC9BFCE99A9D
:10024500F90FD8E0E4C9FAE4CCFB2275F010EF2FE2
:10025500FFEE33FEED33FDCC33CCC833C810D707E2
:100265009BEC9AE899400AED9BFDEC9AFCE899F81D
:0E0275000FD5F0DAE4CDFBE4CCFAE4C8F922B0
:0E028300C3E49FFFE49EFEE49DFDE49CFC228C
:060291008A838982E473F8
:10029700EC8EF0A4CCC5F0CCCDF8EFA4CEC5F02DF4
:1002A700FDE43CFCE8A42EC8C5F03DFDE43CFCEFB2
:0D02B700A4FFE5F028FEE43DFDE43CFC2240
:00000001FF
