:100683000A2A3D3D3D3D3D3D3D3D3D3D3D3D3D3DDD
:100693003D3D3D3D3D3D3D3D3D3D3D3D3D3D3D3D87
:1006A3003D3D3D3D3D3D3D3D3D3D3D3D3D3D3D3D77
:1006B3003D3D3D3D3D3D3D3D3D3D3D3D3D3D3D3D67
:1006C3003D3D3D3D3D000A2A20204E616D653A20A7
:1006D3004E37394538317820536572696573204147
:1006E30044432053616D706C6520436F64652E0035
:1006F3000A4144432056616C7565203D2025640002
:05005400D2AED2AF2284
:10000300EFB40800504A900010F828287302002823
:1000130002002C02003002003402003802003F02CA
:10002300004602004DC2FA800EC2FA8011C2FA8065
:1000330014C2FA8017D2FAC2F9C2F822D2FAC2F96C
:10004300D2F822D2FAD2F9C2F822D2FAD2F9D2F8ED
:01005300228A
:1007EC00EFB4080050629007F9F82828730208113A
:1007FC0002081902082102082902083102083902EC
:10080C00084102084B43F60275B102802E43F604F0
:10081C0075B104802643F60875B108801E43F610A6
:10082C0075B110801643F62075B120800E43F6404A
:10083C0075B140800643F68075B180E4F5B2224371
:09084C00A20875B540E4F5B622DE
:08092E00C2FCD2FB4387012249
:0F091F00E4FF1207EC12000312005443E18022A0
:100703007F807E257D007C001208E41207827BFF38
:100713007A0679831200C07BFF7A0679C91200C07A
:100723007BFF7A0679831200C012091F12092EAFCC
:10073300F87508008F09E509AE087806CEC313CE15
:1007430013D8F9F5098E08AFE2750A008F0BE50B94
:10075300AE0A7802C333CE33CED8F92509F50BE5BB
:10076300083EF50A7BFF7A0679F3F50F850B101225
:0F07730000C07FF47E017D007C0012085580AD30
:03005B0002094651
:05094600C2FCC2FB32FF
:1008E400759852758920AB07AA06A905A804E47F68
:1008F400807E70FDFC1203F6EFF404F58DD28E2297
:070936003098FDAF99C29853
:01093D002297
:08093E003099FDC2998F992246
:100527000A000A3D3D3D3D3D3D3D3D3D3D3D3D3D97
:100537003D3D3D3D3D3D3D3D3D3D3D3D3D3D3D3DE4
:100547003D3D3D3D3D3D3D3D3D3D3D3D3D3D3D3DD4
:100557003D3D3D3D3D3D3D3D3D3D3D3D3D3D3D3DC4
:100567003D3D3D3D3D3D3D000A2A2020436F7079CA
:1005770072696768742863292032303134204E75D8
:10058700766F746F6E20546563686E6F6C6F6779F2
:1005970020436F72702E20416C6C207269676874FB
:1005A700732072657365727665642E2020000A2AAF
:1005B700202053616D706C65204E616D6520202091
:1005C70020203A204E75766F746F6E204E3739456E
:1005D700383178205365726965732053616D706C8B
:1005E7006520436F64652E202020202020202020B6
:1005F700202020000A2A2020436F6E746163742034
:10060700452D4D61696C3A204D6963726F432D38F2
:10061700626974406E75766F746F6E2E636F6D20AE
:1006270020202020202020202020202020202020C3
:10063700202020202020202020000A2A202053616B
:100647006D706C652056657273696F6E20203A2055
:100657002532642E2532642E253264000A2A202092
:1006670046696E69736865642044617465203A2041
:0C0677002532642E2532642E25326400EA
:100782007BFF7A0579271200C07BFF7A057929124F
:1007920000C07BFF7A05796F1200C07BFF7A057972
:1007A200B51200C07BFF7A0579FB1200C07BFF7A8D
:1007B200067941750F00751001E4F511F512F51374
:1007C2007514021200C07BFF7A067963750F0775F4
:1007D20010DE7511007512017513007514171200E1
:0A07E200C07BFF7A0579290200C0F0
:10090400D28CEF4E6012758AF7758CFF308DFDC264
:0B0914008DEF1F70ED1E80EAC28C22E8
:100855008F0F8E0E8D0D8C0CD28CE4FFFEFDFCAB44
:100865000FAA0EA90DA80CC31204886025758A6508
:10087500758CFC308DFDC28DE50F24FFF50FE50E5F
:1008850034FFF50EE50D34FFF50DE50C34FFF50CE1
:0508950080C8C28C22A6
:030000000208C132
:1008C100787FE4F6D8FD9000007F007E01E4F0A37C
:1008D100DFFCDEFA78007F00E4F208DFFC7581219D
:0308E10002070308
:1003BA0075F008758200EF2FFFEE33FECD33CDCCFA
:1003CA0033CCC58233C5829BED9AEC99E58298407D
:1003DA000CF582EE9BFEED9AFDEC99FC0FD5F0D65A
:1003EA00E4CEFBE4CDFAE4CCF9A88222B800C1B984
:1003FA000059BA002DEC8BF084CFCECDFCE5F0CBC2
:10040A00F97818EF2FFFEE33FEED33FDEC33FCEBFA
:10041A0033FB10D703994004EB99FB0FD8E5E4F9B5
:10042A00FA227818EF2FFFEE33FEED33FDEC33FCA2
:10043A00C933C910D7059BE99A4007EC9BFCE99A96
:10044A00F90FD8E0E4C9FAE4CCFB2275F010EF2FDB
:10045A00FFEE33FEED33FDCC33CCC833C810D707DB
:10046A009BEC9AE899400AED9BFDEC9AFCE899F816
:0E047A000FD5F0DAE4CDFBE4CCFAE4C8F922A9
:10048800EB9FF5F0EA9E42F0E99D42F0E89C45F0CA
:010498002241
:10005E00E51B240FF8E6051B22780C300702780FFB
:10006E00E475F0011204F10204992000EB7F2ED208
:10007E00008018EF540F2490D43440D4FF30040B7A
:10008E00EF24BFB41A0050032461FFE51C60021573
:10009E001C051FE51F7002051E30070D780CE47558
:1000AE00F0011204F1EF0204DF02089A7403D20782
:1000BE008003E4C207F51B8B0C8A0D890EE4F51C38
:1000CE00F51EF51FE51C60077F2012009980F5755F
:1000DE001DFFC201C200C202C203C205C206C2088F
:1000EE00120067FF700D3007057F001200AAAF1FC8
:1000FE00AE1E22B4255FC2D5C204120067FF24D003
:10010E00B40A00501A75F00A781C30D50508B6FFEF
:10011E000106C6A426F620D5047002D20380D92487
:10012E00CFB41A00EF5004C2E5D2040202AAD201E3
:10013E0080C6D20080C0D20280BCD2D580BAD20591
:10014E0080B47F201200992002077401B51C004074
:10015E00F112005EFF1200990200D2D208D2068080
:10016E009512005EFB12005EFA12005EF94A4B70A9
:10017E0006797B7A037BFF20022EE51C602A7E0027
:10018E008E827583001204B260060EEE651D70F04D
:10019E00C2D5EBC0E0EAC0E0E9C0E0EE1202F1D059
:1001AE00E0F9D0E0FAD0E0FB120499FF60AAEBC0B0
:1001BE00E0EAC0E0E9C0E0120099D0E02401F9D0F5
:1001CE00E03400FAD0E0FBE51D0460DCD51DD980DB
:1001DE00877BFF7A0279EDD202809C7910800279BA
:1001EE0008C206C2088008D2D5790A8004790AC2EC
:1001FE00D5E51D047002F51DE4FAFDFEFF12005E4A
:10020E00FC7B0820011312005EFD7B1030000A12E9
:10021E00005EFE12005EFF7B20EC3382D592D5503D
:10022E0013C3E43000069FFFE49EFEE42001039D0D
:10023E00FDE49CFCE4CBF8C201EC700CCFCECDCC2F
:10024E00E824F8F870F38017C3EF33FFEE33FEEDBA
:10025E0033FDEC33FCEB33FB994002FB0FD8E9EB9B
:10026E00300105F8D0E0C448B201C0E00AEC4D4EB2
:10027E004F78207B0070C2EAB51D0040BCC0E01272
:10028E0002F3D0F0D0E0200104C4C0E0C4B201C03B
:10029E00F0120082D0F0D5F0EB0200D2120501016F
:1002AE006F5301E95801404C013C4201ED4F01F5FD
:0F02BE004401F54901554301FB5501DF4601DFBE
:1002CD004501DF47039B5001442D01482E016B2B47
:1002DD00014C2301692003842A01044800000163B5
:1002ED003F3F3F00790AA2D5200314300509B9100C
:1002FD00020404B9080104A2D5200602500104200D
:10030D0002689202B51C005034C0E07F2030031902
:10031D007F30A20272067205500F12034AC202C24A
:10032D0006C205C2087F30800F300503E9C0E01218
:10033D000099300503D0E0F9D0E0B51CCC3005179D
:10034D007F30B9100C1200997F583004077F7880E8
:10035D0003B908031200993002057F2D0200997F21
:10036D00202008F87F2B2006F322920280CF286EE2
:10037D00756C6C2900D20112005E3001F8C2017853
:10038D001C30D50108F60201042D504349581200C6
:10039D005E2403B405004001E49003969312008A95
:0D03AD00743A12008AD203751C040201E9A3
:10049900BB010689828A83E0225002E722BBFE0261
:0904A900E32289828A83E4932294
:1004B200BB010CE58229F582E5833AF583E02250FF
:1004C20006E92582F8E622BBFE06E92582F8E22249
:0D04D200E58229F582E5833AF583E4932263
:1004DF00BB010689828A83F0225002F722BBFE01FC
:0204EF00F322F6
:1004F100FAE6FB0808E6F925F0F618E6CA3AF6220C
:10050100D083D082F8E4937012740193700DA3A389
:1005110093F8740193F5828883E47374029368609D
:06052100EFA3A3A380DF9D
:10089A00EFB40A07740D1208A5740A309811A899C2
:1008AA00B8130CC2983098FDA899C298B811F630BE
:0708BA0099FDC299F5992296
:00000001FF
