:030000000204CE29
:0C04CE00787FE4F6D8FD75816702051503
:1005D8007FF47E011208497F807E251208C6120A20
:1005E8008B120B151209F012042A1209481207FF80
:1005F800120AC612042A12000312000E7E0B7F1C78
:10060800D20A7BC87A007D0E7C061206507E0B7FCC
:1006180036D20A7BC87A007D407C061206507E0AD4
:100628007F68D20A7BE87A037DB87C061206507E82
:10063800077F74D20A7BD07A077D587C0712065050
:08064800120B301206BA80FB10
:030B2C00012200A3
:1006BA00E4F508E50875F008A4242DF8E66049E594
:1006CA000875F008A4242CF8E6D39400403AE5080B
:1006DA0075F008A42426F8E6FE08E6AA06F912022E
:1006EA0087E50875F008A4242CF816E50875F008C3
:1006FA00A4242AF8E6FE08E64E700DE50875F0080F
:10070A00A42426F8E4F608F60508E508C39404408C
:04071A00A202005ADD
:040650008E088F0978
:10065400E4FFEF75F008A42426F8E6F58308E645E0
:10066400836009EFC3940450030F80E6BF0406754A
:1006740022017F0422EF75F008A42426F8A60808B6
:10068400A609EF75F008A42428F8A60408A605EF27
:1006940075F008A4242AF8A60208A603A20AE433E3
:1006A400FEEF75F008A4242DF8A606EF75F008A453
:0506B400242CF8E4F61F
:0106B900221E
:10080000EF75F008A42426F8E6FC08E64C7007759E
:100810002202D20A8002C20AEF75F008A42426F848
:10082000E4F608F6EF75F008A42428F8E4F608F6D4
:10083000EF75F008A4242AF8E4F608F6EF75F0083E
:08084000A4242CF8E4F6A20A3E
:01084800228D
:01005A002283
:040B280043870222DB
:040849008E088F097D
:10084D00E4F50EAF0E120800050EE50EC39404403C
:10085D00F2AE08AF097C007D0B12028DE47B0CFA21
:10086D00F9F81201E78F0D8E0C8D0B8C0AC3E49FE6
:10087D00FFE49EF55A8F5C5389F0438901120AFA01
:02088D00D2A9EE
:01088F002246
:030B3000D2AF221F
:0B0AFA00C28C855C8A855A8CD28C224D
:03000B0002055A91
:10055A00C0E0C0F0C0D075D000C000C004C005C063
:01056A000789
:10056B00120AFAE4FFEF75F008A42426F8E6FC085B
:10057B00E64C6046EF75F008A42428F8E6FC08E684
:10058B004C7028EF75F008A4242CF806EF75F008D2
:10059B00A4242AF8E6FC08E6FD4C601EEF75F00873
:1005AB00A42428F8A60408A605800FEF75F008A46C
:0E05BB002428F808E616187001160FBF04A7D2
:0F05C900D007D005D004D000D0D0D0F0D0E03291
:1008C6005387BF53A2BF75985A53890F438920ABEC
:1008D60007AA06E4F9F87F807E70FDFC1201E71294
:1008E60002798F8B8F8DD28EC299D2ACE4F51BF52F
:0208F6001C22C2
:030023000203785D
:10037800C0E0C0F0C083C082C0D075D000C000C04B
:1003880001C002C003C004C005C006C0073098778A
:10039800C298751A057412251AF8E6FF7413251AFF
:1003A800F8A607D51AEF85991320A510051BE51B9C
:1003B800C394064052751B00D200804B903000E475
:1003C8009365187042A3936517703CA393651670E4
:1003D80036A39365157030A3936514702AA39365AB
:1003E80013702430040330051E751E007F1A120B8B
:1003F80033755E0030050BC205D204308109D2097D
:10040800800530A502D201D007D006D005D004D08F
:1004180003D002D001D000D0D0D082D083D0F0D089
:02042800E032C0
:100A8B0043B10253B2FDE4F563F562C208C2092219
:060B1C00120A440209D98F
:100A4400300809308106200903D20522208102C220
:020A5400092275
:100A310075AF30C2AF75C7AA75C755439F01D2AF15
:030A4100020AAAFC
:100A1D0075AF30120AAAC2AF75C7AA75C755539FD5
:040A2D00FED2AF2224
:0E0AAA00C2AF75C7AA75C75543A401D2AF22CB
:1009C2008E088F09120A3175AF22E508F5A785094D
:0709D200A6120AAA020A1D89
:10003E008E088F098D0A120A3175AF21E508F5A7D2
:0C004E008509A6850AAE120AAA020A1D46
:070B150043B52053B6DF22B7
:1009D90020A503120B0520A50D30000A7F1B120B61
:0709E900331207C2C2002215
:1007C2007F007E301209C2AD187F007E3012003EDB
:1007D200AD177F017E3012003EAD167F027E3012D1
:1007E200003EAD157F037E3012003EAD147F047EC5
:0D07F2003012003EAD137F057E3002003E48
:1009F00043B18053B27FC294D2A0C2A1E4F51E7568
:070A00001F0A7F01020B3306
:040890008F088D0937
:10089400D2947F1E7E4C120A7A120A56E4F50AE5B7
:1008A4000AC395085016D2A17FA47EFF120A7AC209
:1008B400A17FA47EFF120A7A050A80E3E4F509F514
:0108C4001D16
:0108C5002210
:030B33008F1D22F1
:030B360002005E5C
:100A5600C2A07F037EEE120A7AD2A07F037EEE0248
:020A66000A7A0A
:10005E00308717E51D641A6011051EE51ED39464E2
:10006E00500221AAE4F51EC29422E4F51EC294E5C4
:10007E001D14B42300400221AA90009125E05002E5
:10008E0005837301D701DD01E301E901EF01F501FC
:10009E00FB21012107210D21132119211F212521CA
:1000AE002B21312137213D21432149214F2155213A
:1000BE005B21612167216D21732179217F218521AA
:1000CE008B21912197219D21A37D057F0121A77D64
:1000DE000F7F0221A77D2D7F0321A77D197F04218C
:1000EE00A77D0A7F0521A77D0A7F0621A77D057FB3
:1000FE000721A77D147F0821A77D0A7F0921A77DEF
:10010E000F7F0A21A77D057F0B21A77D057F0C217F
:10011E00A77D057F0D21A77D057F0E807C7D057F48
:10012E000F80767D057F1080707D057F11806A7D42
:10013E00057F1280647D057F13805E7D057F1480B0
:10014E00587D057F1580527D237F16804C7D147F50
:10015E001780467D057F1880407D057F19803A7D8A
:10016E000A7F1A80347D0F7F1B802E7D0A7F1C80B4
:10017E00287D147F1D80227D057F1E801C7D057FBE
:10018E001F80167D057F2080107D057F21800A7DD2
:0D019E00057F2280047D057F23120890223A
:100A7A008E648F650565E56570020564456470F4EA
:010A8A002249
:0D0AD40000000000000000000000000022F3
:100991008F088D09120A9B7F3812096EAF08120960
:0909A1006EAF0912096E020AEEA4
:020921008F0F36
:10092300120A9B7F3812096EAF0F12096E120A9BCF
:100933007F3912096E1208F88F10D20B120AB812FF
:040943000AEEAF10F9
:01094700228D
:02096E008F11E7
:10097000E4F512E51125E0F5119293D292120AD412
:10098000C292120AD40512E512C3940840E5020A85
:01099000E185
:1008F800E4F512D293F511E51225E0F512D2921221
:100908000AD4A293E4334212C292120AD40511E522
:0809180011C3940840E1AF1285
:0109200022B4
:0F0A9B00D293D292120AD4C293120AD4C29222D8
:0C0AEE00C293D292120AD4D293020AD40E
:0E0AB800A20B9293D292120AD4C292020AD4D6
:0D0AE100D292120AD4A293C292120AD42219
:10094800C20743B11053B2EF43EC1843EB1A53EA12
:10095800E543E91AD2E9E4F557F556F558F555F5A2
:0609680059C205C206227F
:03003B000202BA04
:1002BA00C0E0C0F0C083C082C0D075D000C000C00A
:1002CA0001C002C003C004C005C006C00753EAE566
:1002DA00D20D755700755600755500755800755939
:1002EA00007F0C1209218F57E55730E3117F221244
:1002FA0009218F58E55830E75A120B058055E55702
:10030A0030E2117F161209218F56E55630E7053083
:10031A000802D205E55730E5147F1E1209218F55D0
:10032A00E55530E608300805300602D205E55730B3
:10033A00E41F7F101209218F59E55930E604D206CD
:10034A008002C206E55954C0FFBF8005300802D2B8
:10035A0005D207D007D006D005D004D003D002D0EA
:0E036A0001D000D0D0D082D083D0F0D0E032CD
:0107FF0022D7
:100A6800120B2230050B120B057F07120B33E4F52E
:020A78005E22FC
:060B2200300702C20722A9
:10000E0043F64043B14053B2BFD2FAC2F9D2F8D24E
:05001E00AE43E1802269
:1009AA00C2FCD2FBC3E54F94AAE54E94034008E487
:0809BA00F51E7F1A120B332217
:03005B0002071E7B
:10071E00C0E0C0D075D000C000C006C007C2FCC289
:10072E00FBAFF87553008F54E554AE537806CEC325
:10073E0013CE13D8F9F5548E53AFE27550008F5186
:10074E00E551AE507802C333CE33CED8F92554F5E9
:10075E0051E5533EF550F54E85514FD007D006D09A
:06076E0000D0D0D0E03203
:0E0AC600E4F55FF561D20DF55EC204F5602225
:10077400055FE55FC3943C4011E4F55F0561E56105
:10078400943C4003E4F5611209AA120A07120026F8
:1007940030040E0560E560D394034005E4F560C2BF
:1007A40004300D19B2A4055EE55ED3940A400EE44C
:0E07B400F55EC20DC209C2A0C294120B28222B
:100A0700300112C201B2083008047F1D80027F172F
:060A1700120B33C209229C
:10042A007D087F2A1209917D037F2B1209917D2A6B
:10043A007F211209917D087F231209917D087F246B
:10044A001209917D087F251209917D307F261209B4
:10045A00917D287F271209917DC87F281209917DF5
:10046A00E07F151209917D107F171209917D287F6F
:10047A00181209917D167F1D1209917D017F1F12A5
:10048A0009917D287F201209917D407F11120991DF
:10049A007DC77F131209917D3C7F141209917D2833
:1004AA007F121209917D3C7F2D1209917D3C7F2E8E
:1004BA001209917F2A1209218F66436601AD667F70
:0404CA002A02099168
:08000300E4F567D285C29122E9
:100026002085110567E567D394094008120B0D304A
:050036000902C20922CD
:080B0500E4F567C285D29122DC
:080B0D00E4F567D285C29122D4
:1004DA000205D8E493A3F8E493A34003F68001F25B
:1004EA0008DFF48029E493A3F85407240CC8C33323
:1004FA00C4540F4420C8834004F456800146F6DFF2
:10050A00E4800B0102040810204080900B2CE47E4A
:10051A00019360BCA3FF543F30E509541FFEE493E6
:10052A00A360010ECF54C025E060A840B8E493A3AD
:10053A00FAE493A3F8E493A3C8C582C8CAC583CAD8
:10054A00F0A3C8C582C8CAC583CADFE9DEE780BE90
:010B2F0000C5
:1001AB0075F008758200EF2FFFEE33FECD33CDCC0B
:1001BB0033CCC58233C5829BED9AEC99E58298408E
:1001CB000CF582EE9BFEED9AFDEC99FC0FD5F0D66B
:1001DB00E4CEFBE4CDFAE4CCF9A88222B800C1B995
:1001EB000059BA002DEC8BF084CFCECDFCE5F0CBD3
:1001FB00F97818EF2FFFEE33FEED33FDEC33FCEB0C
:10020B0033FB10D703994004EB99FB0FD8E5E4F9C6
:10021B00FA227818EF2FFFEE33FEED33FDEC33FCB3
:10022B00C933C910D7059BE99A4007EC9BFCE99AA7
:10023B00F90FD8E0E4C9FAE4CCFB2275F010EF2FEC
:10024B00FFEE33FEED33FDCC33CCC833C810D707EC
:10025B009BEC9AE899400AED9BFDEC9AFCE899F827
:0E026B000FD5F0DAE4CDFBE4CCFAE4C8F922BA
:0E027900C3E49FFFE49EFEE49DFDE49CFC2296
:060287008A838982E47302
:10028D00EC8EF0A4CCC5F0CCCDF8EFA4CEC5F02DFE
:10029D00FDE43CFCE8A42EC8C5F03DFDE43CFCEFBC
:0D02AD00A4FFE5F028FEE43DFDE43CFC224A
:00000001FF
