:030000000204FBFC
:0C04FB00787FE4F6D8FD758169020542A7
:100605007FF47E011208497F807E25120904120BB2
:100615003B120B7C1209F61204571209AD120B801E
:10062500120B1312045712000312000E7E0B7F8764
:10063500D20D7BC87A007D0E7C0612067D7E0B7F6F
:100645008DD20D7BC87A007D407C0612067D7E0921
:100655007F86D20D7BE87A037DB87C0612067D7E07
:10066500077FA1D20D7BD07A077D587C0712067DC6
:08067500120B841206E780FB62
:030B780001220057
:1006E700E4F508E50875F008A4242DF8E66049E567
:1006F7000875F008A4242CF8E6D39400403AE508DE
:1007070075F008A42426F8E6FE08E6AA06F9120200
:10071700B9E50875F008A4242CF816E50875F00863
:10072700A4242AF8E6FE08E64E700DE50875F008E1
:10073700A42426F8E4F608F60508E508C39404405F
:04074700A202005AB0
:04067D008E088F094B
:10068100E4FFEF75F008A42426F8E6F58308E645B3
:10069100836009EFC3940450030F80E6BF0406751D
:1006A10022017F0422EF75F008A42426F8A6080889
:1006B100A609EF75F008A42428F8A60408A605EFFA
:1006C10075F008A4242AF8A60208A603A20DE433B3
:1006D100FEEF75F008A4242DF8A606EF75F008A426
:0506E100242CF8E4F6F2
:0106E60022F1
:10080000EF75F008A42426F8E6FC08E64C7007759E
:100810002202D20D8002C20DEF75F008A42426F842
:10082000E4F608F6EF75F008A42428F8E4F608F6D4
:10083000EF75F008A4242AF8E4F608F6EF75F0083E
:08084000A4242CF8E4F6A20D3B
:01084800228D
:01005A002283
:040B7400438702228F
:040849008E088F097D
:10084D00E4F50EAF0E120800050EE50EC39404403C
:10085D00F2AE08AF097C007D0B1202BFE47B0CFAEF
:10086D00F9F81202198F0D8E0C8D0B8C0AC3E49FB3
:10087D00FFE49EF55A8F5C5389F0438901120B53A7
:02088D00D2A9EE
:01088F002246
:030B8400D2AF22CB
:0B0B5300C28C855C8A855A8CD28C22F3
:03000B0002058764
:10058700C0E0C0F0C0D075D000C000C004C005C036
:01059700075C
:10059800120B53E4FFEF75F008A42426F8E6FC08D4
:1005A800E64C6046EF75F008A42428F8E6FC08E657
:1005B8004C7028EF75F008A4242CF806EF75F008A5
:1005C800A4242AF8E6FC08E6FD4C601EEF75F00846
:1005D800A42428F8A60408A605800FEF75F008A43F
:0E05E8002428F808E616187001160FBF04A7A5
:0F05F600D007D005D004D000D0D0D0F0D0E03264
:100904005387BF53A2BF75985A53890F438920ABAD
:1009140007AA06E4F9F87F807E70FDFC1202191222
:1009240002AB8F8B8F8DD28EC299D2ACE4F51BF5BE
:020934001C2283
:030023000203AA2B
:1003AA00C0E0C0F0C083C082C0D075D000C000C019
:1003BA0001C002C003C004C005C006C0073098725D
:1003CA00C298751A057412251AF8E6FF7413251ACD
:1003DA00F8A607D51AEF859913200510051BE51B0A
:1003EA00C39406404D751B00D2008046903000E44D
:1003FA00936518703DA39365177037A393651670BC
:10040A0031A3936515702BA39365147025A3936587
:10041A0013701F300403300819751E007F1A120B5F
:10042A008A755E00300806C208D2048005300502CB
:10043A00D201D007D006D005D004D003D002D00113
:0D044A00D000D0D0D082D083D0F0D0E032EE
:0C0B3B00E4F563F562C206C207C20522A1
:030B8700020A154A
:1007EE00300609308106200703D20822208102C27A
:0207FE000722D0
:100AA00075AF30C2AF75C7AA75C755439F01D2AFA6
:030AB000020AF740
:100A8C0075AF30120AF7C2AF75C7AA75C755539F19
:040A9C00FED2AF22B5
:0E0AF700C2AF75C7AA75C75543A401D2AF227E
:100A5F008E088F09120AA075AF22E508F5A7850940
:070A6F00A6120AF7020A8C2F
:10003E008E088F098D0A120AA075AF21E508F5A763
:0C004E008509A6850AAE120AF7020A8C8A
:040B7C00E4F5662214
:100A1500200503120B5E20050F30000C7F1B120B07
:090A25008A120890C200D20522D9
:100AB30020050E0566E566D3940A4005E4F566D283
:020AC30005220A
:100890007F007E30120A5FAD187F007E3012003E6E
:1008A000AD177F017E3012003EAD167F027E301202
:1008B000003EAD157F037E3012003EAD147F047EF6
:0D08C0003012003EAD137F057E3002003E79
:1009F60043B18053B27FC294C2A0C2A1E4F51E7572
:0F0A06001F0AC20B120AC5E4F51E7F1A020B8AE3
:0408CD008F088D09FA
:1008D100D2947F1E7E4C120AD7120AC5E4F50AE5AE
:1008E1000AC395085016D2A17FA47EFF120AD7C26F
:1008F100A17FA47EFF120AD7050A80E385091FE4C0
:02090100F51DE2
:0109030022D1
:030B8A008F1D229A
:030B8D0002005E05
:100AC500D2A07F037EEE120AD7C2A07F037EEE027C
:020AD5000AD73E
:10005E00309419E51D641A6013D20B051EE51ED3EC
:10006E00951F500221DCE4F51EC29422E4F51EC257
:10007E0094300B05C20B120AC5E51D14B4280040BE
:10008E000221DC90009B25E0500205837301EB01F9
:10009E00F101F701FD21032109210F2115211B215A
:1000AE00212127212D21332139213F2145214B218A
:1000BE00512157215D21632169216F2175217B21FA
:1000CE00812187218D21932199219F21A521AB216A
:1000DE00B121B721BD21C321C921CF21D57D057FF6
:1000EE000121D97D0F7F0221D97D2D7F0321D97D5D
:1000FE00197F0421D97D0A7F0521D97D0A7F06212A
:10010E00D97D147F0721D97D147F0821D97D0A7FDF
:10011E000921D97D0F7F0A21D97D057F0B21D97D3C
:10012E00057F0C21D97D057F0D21D97D057F0E21FF
:10013E00D97D057F0F21D97D057F1021D97D057FC2
:10014E001121D97D057F1221D97D057F13807C7DFC
:10015E00057F1480767D057F1580707D237F168048
:10016E006A7D147F1780647D057F18805E7D057F14
:10017E001980587D0A7F1A80527D127F1B804C7D1C
:10018E000A7F1C80467D1E7F1D80407D057F1E8060
:10019E003A7D057F1F80347D057F20802E7D057F73
:1001AE002180287D057F2280227D057F23801C7D76
:1001BE00057F2480167D057F2580107D057F268096
:0F01CE000A7D037F2780047D197F281208CD2228
:100AD7008E648F650565E56570020564456470F48D
:010AE70022EC
:0D0B210000000000000000000000000022A5
:030B9000D28222EC
:100A2E008F088D09120AE87F381209D3AF08120910
:090A3E00D3AF091209D3020B47E2
:02095F008F0FF8
:10096100120AE87F381209D3AF0F1209D3120AE82D
:100971007F391209D31209368F10D20E120B0512CC
:040981000B47AF1061
:01098500224F
:0209D3008F1182
:1009D500E4F512E51125E0F5119293D292120B215F
:1009E500C292120B210512E512C3940840E5020BD1
:0109F5002ED3
:10093600E4F512D293F511E51225E0F512D29212E2
:100946000B21A293E4334212C292120B210511E548
:0809560011C3940840E1AF1247
:01095E002276
:0F0AE800D293D292120B21C293120B21C29222EF
:0C0B4700C293D292120B21D293020B2118
:0E0B0500A20E9293D292120B21C292020B21E9
:0D0B2E00D292120B21A293C292120B21222F
:1009AD00C20A43B11053B2EF43EC1843EB1A53EAAA
:1009BD00E543E91AD2E9E4F557F556F558F555F53D
:0609CD0059C208D2092204
:03003B000202ECD2
:1002EC00C0E0C0F0C083C082C0D075D000C000C0D8
:1002FC0001C002C003C004C005C006C00753EAE534
:10030C00D20F755700755600755500755800755904
:10031C00007F0C12095F8F57E55730E3117F2212D3
:10032C00095F8F58E55830E75A120B5E8055E55738
:10033C0030E2117F1612095F8F56E55630E7053013
:10034C000602D208E55730E5147F1E12095F8F555F
:10035C00E55530E608300605300902D208E557307D
:10036C00E41F7F1012095F8F59E5595444700ED267
:10037C00A4300605200902D208D2098004C2A4C206
:10038C0009D20AD007D006D005D004D003D002D0B1
:0E039C0001D000D0D0D082D083D0F0D0E0329B
:040B8000E4F567220F
:10098600120B6E300820120B5E209417E567146078
:100996000A04700F7567017F288005E4F5677F07F5
:0709A600120B8AE4F55E224A
:060B6E00300A02C20A2257
:10000E0043F64043B14053B2BFD2FAC2F9D2F8D24E
:05001E00AE43E1802269
:100A4700C2FCD2FBC3E54F942FE54E94025008E455
:080A5700F51E7F1A120B8A2222
:03005B0002074B4E
:10074B00C0E0C0D075D000C000C006C007C2FCC25C
:10075B00FBAFF87553008F54E554AE537806CEC3F8
:10076B0013CE13D8F9F5548E53AFE27550008F5159
:10077B00E551AE507802C333CE33CED8F92554F5BC
:10078B0051E5533EF550F54E85514FD007D006D06D
:06079B0000D0D0D0E032D6
:0E0B1300E4F55FF561D20FF55EC204F56022D5
:1007A100055F120AB3E55FC394284011E4F55F05C4
:1007B10061E561943C4003E4F561120A47120A764F
:1007C10030040E0560E560D394034005E4F560C292
:1007D10004300F18055EE55ED3940A400FE4F55E20
:0D07E100C20FC207120B66C294120B7422E5
:100A7600300112C201B2063006047F1D80027F17C4
:060A8600120B8AC20722D8
:100457007D087F2A120A2E7D037F2B120A2E7D2A02
:100467007F21120A2E7D087F23120A2E7D087F2402
:10047700120A2E7D087F25120A2E7D307F26120A4A
:100487002E7D287F27120A2E7DC87F28120A2E7DEF
:10049700D07F15120A2E7D127F17120A2E7D287F14
:1004A70018120A2E7D1A7F1D120A2E7D017F1F1238
:1004B7000A2E7D287F20120A2E7D407F11120A2ED8
:1004C7007DC77F13120A2E7D847F14120A2E7D2882
:1004D7007F12120A2E7D3C7F2D120A2E7D3C7F2E25
:1004E700120A2E7F2A12095F8F68436801AD687F61
:0404F7002A020A2E9D
:08000300E4F569D285C28122F7
:100026002085110569E569D394094008120B6630ED
:050036000702C20722D1
:080B5E00E4F569C285D2812291
:080B6600E4F569D285C2812289
:10050700020605E493A3F8E493A34003F68001F2FF
:1005170008DFF48029E493A3F85407240CC8C333F5
:10052700C4540F4420C8834004F456800146F6DFC4
:10053700E4800B0102040810204080900B78E47ED1
:10054700019360BCA3FF543F30E509541FFEE493B9
:10055700A360010ECF54C025E060A840B8E493A380
:10056700FAE493A3F8E493A3C8C582C8CAC583CAAB
:10057700F0A3C8C582C8CAC583CADFE9DEE780BE63
:010B7B000079
:1001DD0075F008758200EF2FFFEE33FECD33CDCCD9
:1001ED0033CCC58233C5829BED9AEC99E58298405C
:1001FD000CF582EE9BFEED9AFDEC99FC0FD5F0D639
:10020D00E4CEFBE4CDFAE4CCF9A88222B800C1B962
:10021D000059BA002DEC8BF084CFCECDFCE5F0CBA0
:10022D00F97818EF2FFFEE33FEED33FDEC33FCEBD9
:10023D0033FB10D703994004EB99FB0FD8E5E4F994
:10024D00FA227818EF2FFFEE33FEED33FDEC33FC81
:10025D00C933C910D7059BE99A4007EC9BFCE99A75
:10026D00F90FD8E0E4C9FAE4CCFB2275F010EF2FBA
:10027D00FFEE33FEED33FDCC33CCC833C810D707BA
:10028D009BEC9AE899400AED9BFDEC9AFCE899F8F5
:0E029D000FD5F0DAE4CDFBE4CCFAE4C8F92288
:0E02AB00C3E49FFFE49EFEE49DFDE49CFC2264
:0602B9008A838982E473D0
:1002BF00EC8EF0A4CCC5F0CCCDF8EFA4CEC5F02DCC
:1002CF00FDE43CFCE8A42EC8C5F03DFDE43CFCEF8A
:0D02DF00A4FFE5F028FEE43DFDE43CFC2218
:00000001FF
