:0300000002036C8C
:0C036C00787FE4F6D8FD7581720203B3BF
:100476007FF47E011206A27F807E251208001209F3
:10048600B31207F91209F712076B120993120A2F12
:10049600120A3D12000E7E0A7F26D2097BC87A0018
:1004A6007DDC7C051204E87E0A7F51D2097BE87A5E
:1004B600037D407C061204E87E0A7F0FD2097BE8A2
:1004C6007A037DA47C061204E87E077FDED2097BD0
:1004D600D07A077D087C071204E8120A4B120552EF
:0204E60080FB99
:030A470001220089
:10055200E4F557E55775F008A4242DF8E66049E55F
:100562005775F008A4242CF8E6D39400403AE557D6
:1005720075F008A42426F8E6FE08E6AA06F9120297
:100582008FE55775F008A4242CF816E55775F00886
:10059200A4242AF8E6FE08E64E700DE55775F00829
:1005A200A42426F8E4F608F60557E557C394054057
:0705B200A212003A020A4305
:0404E8008E578F5844
:1004EC00E4FFEF75F008A42426F8E6F58308E6454A
:1004FC00836009EFC3940550030F80E6BF050675B2
:10050C0022017F0522EF75F008A42426F8A65708CF
:10051C00A658EF75F008A42428F8A60408A605EF41
:10052C0075F008A4242AF8A60208A603A209E4334D
:10053C00FEEF75F008A4242DF8A606EF75F008A4BC
:05054C00242CF8E4F688
:010551002287
:10065900EF75F008A42426F8E6FC08E64C70077547
:100669002202D2098002C209EF75F008A42426F8F3
:10067900E4F608F6EF75F008A42428F8E4F608F67D
:10068900EF75F008A4242AF8E4F608F6EF75F008E7
:08069900A4242CF8E4F6A209E8
:0106A1002236
:01003A0022A3
:040A430043870122C2
:0406A2008E578F5888
:1006A600E4F55DAF5D120659055DE55DC394054051
:1006B600F2AE57AF587C007D0B120295E47B0CFA24
:1006C600F9F81201EF8F5C8E5B8D5A8C59C3E49F4B
:1006D600FFE49EF55E8F605389F0438901120A1B81
:0206E600D2A997
:0106E80022EF
:030A4B00D2AF2205
:0B0A1B00C28C85608A855E8CD28C2224
:03000B000203F8F5
:1003F800C0E0C0F0C0D075D000C000C004C005C0C7
:0104080007EC
:10040900120A1BE4FFEF75F008A42426F8E6FC089D
:10041900E64C6046EF75F008A42428F8E6FC08E6E7
:100429004C7028EF75F008A4242CF806EF75F00835
:10043900A4242AF8E6FC08E6FD4C601EEF75F008D6
:10044900A42428F8A60408A605800FEF75F008A4CF
:0E0459002428F808E616187001160FBF05A734
:0F046700D007D005D004D000D0D0D0F0D0E032F4
:100800005387BF53A2BF75985A53890F438920ABB2
:1008100007AA06E4F9F87F807E70FDFC1201EF1252
:1008200002818F8B8F8DD28EC299D2ACE4F516F5F2
:0208300017228D
:080003008F993099FDC299228A
:1008CF008B628A638964AF051DEF6017AB620564A5
:1008DF00E564AA637002056314F912019AFF12000E
:0408EF000380E3227D
:030023000202C214
:1002C200C0E0C0F0C083C082C0D075D000C000C002
:1002D20001C002C003C004C005C006C00730986F49
:1002E200C298750F057407250FF8E6FF7408250FED
:1002F200F8A607D50FEF859908B2A420A522051606
:10030200E516C394064048751600D200850D108587
:100312000C11850B12850A13850914850815802F87
:10032200E50D65107029E50C65117023E50BB5121A
:100332001EE50AB51319E509B51414E508B5150F3C
:1003420020810A7566007F1A120A4ED201C208D0B5
:1003520007D006D005D004D003D002D001D000D0FF
:0A036200D0D082D083D0F0D0E0327A
:0E09B30043B10253B2FDE4F56CF56BC20622AF
:090A26001207A612097102085B17
:1007A600308110056CE56CD3943C4013E4F56CF590
:1007B6006B800CE56CC394044005E4F56C056BE5B1
:1007C6006BC394034011E4F56BB2063006047F1D3B
:0807D60080027F17120A4E2277
:10095E0075AF30C2AF75C7AA75C755439F01D2AFE9
:03096E000209C1BA
:1000260075AF301209C1C2AF75C7AA75C755539FC0
:04003600FED2AF2225
:0E09C100C2AF75C7AA75C75543A401D2AF22B5
:100947008E578F5812095E75AF22E557F5A7855860
:07095700A61209C1020026EF
:10003E008E578F588D5912095E75AF21E557F5A76A
:0C004E008558A68559AE1209C102002693
:0707F90043B52053B6DF22D7
:1009710020A50D30000A7F1B120A4E12072EC2005D
:010981002253
:10072E007F007E30120947AD0D7F007E3012003EF5
:10073E00AD0C7F017E3012003EAD0B7F027E30127B
:10074E00003EAD0A7F037E3012003EAD097F047E6F
:0D075E003012003EAD087F057E3002003EE7
:0C09F700C294D2A0C2A1E4F566D2042292
:0406E9008F578D5842
:1006ED00D294C2A07F037EEE120982D2A07F037E38
:1006FD00EE120982E4F559E559C395575016D2A16A
:10070D007FA47EFF120982C2A17FA47EFF120982FF
:10071D00055980E3855867E565641A6003E4F5655E
:01072D0022A9
:030A4E008F65228F
:030A510002005E42
:10085B00E565641A70213094110566E566D39567DA
:10086B004015E4F566C294F56522E56524E670074C
:08087B007D0A7F1A1206E92232
:10005E003094110566E566D3956750022199E4F553
:10006E0066C29422E56514B42300400221999000E3
:10007E008625E0500205837301CC01D201D801DE42
:10008E0001E401EA01F001F601FC21022108210E32
:10009E002114211A21202126212C21322138213E02
:1000AE002144214A21502156215C21992162216847
:1000BE00216E2174217A21802186218C21927D014D
:1000CE007F0121967D037F0221967D097F03219674
:1000DE007D057F0421967D027F0521967D027F0698
:1000EE0021967D017F0721967D047F0821967D0252
:1000FE007F0921967D037F0A21967D017F0B219634
:10010E007D017F0C21967D017F0D807C7D017F0E10
:10011E0080767D017F0F80707D017F10806A7D016A
:10012E007F1180647D017F12805E7D017F13805878
:10013E007D017F1480527D017F15804C7D077F16D7
:10014E0080467D047F1780407D017F18803A7D01B7
:10015E007F1980347D027F1B802E7D027F1C8028BC
:10016E007D047F1D80227D017F1E801C7D017F1FEF
:10017E0080167D017F2080107D017F21800A7D0108
:0C018E007F2280047D017F231206E922FD
:100982008E6D8F6E056EE56E7002056D456D70F4AD
:010992002242
:0D09DD0000000000000000000000000022EB
:10076B007D187F2A1209167DD87F151209167D1068
:10077B007F171209167D0A7F181209167D047F2D2B
:10078B001209167D047F2E1209167F2A1208838FF9
:0B079B004E434E01AD4E7F2A020916AE
:100916008F578D581209A47F381208F3AF57120863
:09092600F3AF581208F3020A03B2
:020883008F578D
:100885001209A47F381208F3AF571208F31209A40E
:100895007F391208F31208328F58D2091209CF1284
:0408A5000A03AF583B
:0108A900222C
:04060F008F688D69FA
:100613001209A47F381208F3AF681208F31209A471
:100623007F391208F3E4F56AE56AC39569501D1230
:100633000832744F256AF8A607E56914B56A04D22F
:10064300098002C2091209CF056A80DC120A037FFE
:06065300337EFE02098265
:0208F3008F591B
:1008F500E4F55AE55925E0F5599293D2921209DDAE
:10090500C2921209DD055AE55AC3940840E5020969
:01091500EAF7
:10083200E4F55AD293F559E55A25E0F55AD29212C7
:1008420009DDA293E433425AC2921209DD0559E549
:0808520059C3940840E1AF5ABC
:01085A00227B
:0F09A400D293D2921209DDC2931209DDC29222C0
:0C0A0300C293D2921209DDD2930209DDE9
:0E09CF00A2099293D2921209DDC2920209DDB2
:0D09EA00D2921209DDA293C2921209DD2201
:10099300C20743EC1843EB1853EAE743E918D2E9DB
:0109A3002231
:03003B00020A377F
:060A370053EAE7D207328A
:080A2F00E4F570F56FC2082226
:0C0A0F001208AA3008057F1B120A4E22B4
:1008AA00300721C207E4F570F56F7F0C1208838FB9
:1008BA0070E57030E20E7F161208838F6FE56F3095
:0508CA00E702D2082244
:10000E0043F64043B14053B2BFD2FAC2F9D2F8D24E
:05001E00AE43E1802269
:10092F00C2FCD2FBC3E51994AAE51894034008E46E
:08093F00F5667F1A120A4E2230
:03005B000205B9E2
:1005B900C0E0C0D075D000C000C006C007C2FCC2F0
:1005C900FBAFF8751D008F1EE51EAE1D7806CEC364
:1005D90013CE13D8F9F51E8E1DAFE2751A008F1BC5
:1005E900E51BAE1A7802C333CE33CED8F9251EF5F2
:1005F9001BE51D3EF51AF518851B19D007D006D045
:0606090000D0D0D0E03269
:060A3D00E4F571F57222E0
:1007DE000571E571C3943C4011E4F5710572E57243
:0B07EE00943C4003E4F57212092F2236
:10037800020476E493A3F8E493A34003F68001F221
:1003880008DFF48029E493A3F85407240CC8C33386
:10039800C4540F4420C8834004F456800146F6DF55
:1003A800E4800B0102040810204080900A47E47E94
:1003B800019360BCA3FF543F30E509541FFEE4934A
:1003C800A360010ECF54C025E060A840B8E493A311
:1003D800FAE493A3F8E493A3C8C582C8CAC583CA3C
:1003E800F0A3C8C582C8CAC583CADFE9DEE780BEF4
:010A4A0000AB
:10019A00BB010689828A83E0225002E722BBFE0263
:0901AA00E32289828A83E4932296
:1001B30075F008758200EF2FFFEE33FECD33CDCC03
:1001C30033CCC58233C5829BED9AEC99E582984086
:1001D3000CF582EE9BFEED9AFDEC99FC0FD5F0D663
:1001E300E4CEFBE4CDFAE4CCF9A88222B800C1B98D
:1001F3000059BA002DEC8BF084CFCECDFCE5F0CBCB
:10020300F97818EF2FFFEE33FEED33FDEC33FCEB03
:1002130033FB10D703994004EB99FB0FD8E5E4F9BE
:10022300FA227818EF2FFFEE33FEED33FDEC33FCAB
:10023300C933C910D7059BE99A4007EC9BFCE99A9F
:10024300F90FD8E0E4C9FAE4CCFB2275F010EF2FE4
:10025300FFEE33FEED33FDCC33CCC833C810D707E4
:100263009BEC9AE899400AED9BFDEC9AFCE899F81F
:0E0273000FD5F0DAE4CDFBE4CCFAE4C8F922B2
:0E028100C3E49FFFE49EFEE49DFDE49CFC228E
:06028F008A838982E473FA
:10029500EC8EF0A4CCC5F0CCCDF8EFA4CEC5F02DF6
:1002A500FDE43CFCE8A42EC8C5F03DFDE43CFCEFB4
:0D02B500A4FFE5F028FEE43DFDE43CFC2242
:00000001FF
