:0300000002067580
:0C067500787FE4F6D8FD7581220206BCF7
:030E380081000036
:10087900E47841F27841E2FFC39403505EEF75F0EA
:1008890008A4240FF8E6604C7841E2FF75F008A44B
:10089900240EF8E6D39400403BEF75F008A4240831
:1008A900F8E6FE08E6AA06F91203F17841E2FF75B7
:1008B900F008A4240EF816EF75F008A4240CF8E645
:1008C900FE08E64E700E7841E275F008A42408F897
:1008D900E4F608F67841E204F28099120022020E49
:0108E90034DA
:070780007841EEF208EFF2F0
:10078700E4FFEF75F008A42408F8E6F58308E645CA
:10079700836009EFC3940350030F80E6EFB40308A7
:1007A70078007401F27F03227841E2F58308E2F5CD
:1007B70082EF75F008A42408F8A68308A682EF75CF
:1007C700F008A4240AF8A60408A605AC02AD03EFB6
:1007D70075F008A4240CF8A60408A605A214E433AF
:1007E700FEEF75F008A4240FF8A606EF75F008A42D
:0507F700240EF8E4F6F9
:0107FC0022DA
:100A9500EF75F008A42408F8E6FC08E64C70097820
:100AA500007402F2D2148002C214EF75F008A42477
:100AB50008F8E4F608F6EF75F008A4240AF8E4F659
:100AC50008F6EF75F008A4240CF8E4F608F6EF75BF
:0A0AD500F008A4240EF8E4F6A214C1
:010ADF0022F4
:0100220022BB
:040E340043870122CD
:0709F5007841EEF208EFF279
:1009FC00E408F27843E2FFC39403500A120A957894
:100A0C0043E204F280ED7841E2FE08E2FF7C007DD7
:100A1C000B1203F7E47B0CFAF9F8120351C3E49FB1
:100A2C00FFE49EAD07FC7804F27806EFF25389F0F0
:080A3C00438901120D80D2A9CB
:010A4400228F
:0307FD00D2AF2256
:0F0D8000C28C7806E2F58A7804E2F58CD28C22D8
:03000B00020701E8
:10070100C0E0C0F0C0D075D000C000C004C005C0BA
:0107110007E0
:10071200120D80E4FFEF75F008A42408F8E6FC0847
:10072200E64C6046EF75F008A4240AF8E6FC08E6F9
:100732004C7028EF75F008A4240EF806EF75F00847
:10074200A4240CF8E6FC08E6FD4C601EEF75F008E8
:10075200A4240AF8A60408A605800FEF75F008A4E1
:0F076200240AF808E616187001160FEFB403A664
:0F077100D007D005D004D000D0D0D0F0D0E032E7
:100BEF00D2A2D2A3E4780FF218F27808F208F243F7
:100BFF00B30453B4FBD285780B74C8F20874E0F2D7
:090C0F000874C1F2D208D2962249
:10042400300068200965300162D2003008051208E6
:10043400008058D2A2C2A37809E22401F218E2345F
:1004440000F2E2FE08E2FFD394D0EE9407403CEFC2
:100454009488EE94135003309231E47808F208F251
:10046400D209C200120E03D2A2D2A32002057F0F2A
:10047400120E2AD213E4783AF2C212780B74C8F23C
:100484000874E0F20874C1F2D2082230000330127A
:1004940063300960D200D285D296C2A2D2A3780971
:1004A400E22401F218E23400F2E2FE08E2FFD394FF
:1004B400D0EE9407403EEF9488EE941350033092AC
:1004C40033E47808F208F2C209C200D2A2D2A3121D
:1004D4000E03D205782DE2FF08E2782BCFF208EF65
:1004E400F22002057F10120E2AC202E4781EF2786E
:0504F4003AF2C21222E1
:1008000020A366780EE2FF240BF8E2FE30E71E78A4
:100810000AE204F2E2C3940A4034E4F2780FE204FC
:10082000F2D2A3740B2FF8EE25E0F28021780AE2D1
:1008300004F2E2C394044016E4F2780FE204F2D228
:10084000A318E2240BF8C000E225E0D000F2780FF4
:10085000E2C394084022E4F218E204F2E2D39402E4
:100860004016E4F2D2A3C20822780AE204F2E2C3FC
:0908700094044004E4F2C2A32246
:0F0D8F0043B10253B2FDE47811F218F2C2102200
:090E0D00120B29120D6F020B9665
:100B29002081117811E204F2E2D3943C4014E4F2FA
:100B390018F2800E7811E2C394044006E4F218E238
:100B490004F27810E2C394034010E4F2B2103010BA
:0B0B5900047F1380027F19120E2A2275
:100026005387BF53A2BF75985A53890F438920AB94
:1000360007AA06E4F9F87F807E70FDFC12035112D0
:1000460003E38F8B8F8DD28EC299D2ACE4781DF2EA
:0300560008F2228B
:080003008F993099FDC299228A
:100BC4007812EBF208EAF208E9F2AF051DEF601AB9
:100BD4007812E2FB0808E2F92401F218E2FA340080
:0B0BE400F21202FCFF12000380E0226E
:030023000205BA19
:1005BA00C0E0C0F0C083C082C0D075D000C000C007
:1005CA0001C002C003C004C005C006C007209802CB
:1005DA00C15AC298781C7405F2781CE2FF2414F8F8
:1005EA00E2FE74152FF8EEF2781CE214F2E270E9DA
:1005FA007815E599F2B2A430A511781DE204F2E269
:10060A00C39406404BE4F2D2008045903000E49354
:10061A00FF781AE26F7039A393FF18E26F7031A363
:10062A0093FF18E26F7029A393FF18E2B50721A37D
:10063A00E493FF18E2B50718A3E493FF18E2B5079D
:10064A000F7827E4F27F18120E2AD201783BE4F2DF
:10065A00D007D006D005D004D003D002D001D000F4
:0B066A00D0D0D082D083D0F0D0E0329E
:100C8600781F7455F208F20874FFF2087455F208DA
:100C96007450F2E408F27BFE7A00791F7D06020B9F
:010CA600C489
:0D0DC900C294C2A0C2A1E47827F2D20A228F
:0709A2007841EFF208EDF2CD
:1009A900D294C2A07F037EEE120CFFD2A07F037EF9
:1009B900EE120CFFE47843F27841E2FF7843E2C398
:1009C9009F5019D2A17FA47EFF120CFFC2A17FA460
:1009D9007EFF120CFF7843E204F280DC7842E27871
:0B09E90028F27826E264186002E4F2B5
:0109F40022E0
:050E2A007826EFF22222
:010059002284
:030E3C000201C5EB
:100B96007826E2FF6418702530941608E204F208FD
:100BA600E2FE18E2D39E4015E4F2C294C20418F2A3
:0E0BB60022EF24E870077D147F181209A22296
:1001C5003094177827E204F208E2FF18E2D39F5033
:1001D5000241FBE4F2C294C204227826E214B41E62
:1001E50000400241FB9001F425E050020583734174
:1001F500304136413C4146414C41524158415E41B6
:1002050064416A4170417B4186418C419A41AA41D2
:10021500B441BA41C441CA41D041D641DC41FB4158
:10022500E241E841FB41FB41EE41F47D017F0141A3
:10023500F87D037F0241F87D097F031209A2C20DF3
:10024500227D047F0480727D057F05806C7D057F9E
:100255000680667D057F0780607D057F08805A7D65
:10026500057F0980547D057F0A41F87D027F0B12C9
:1002750009A27F0C801C7D027F0C1209A27F0A80D7
:10028500117D037F0D806CD20D7D037F0E1209A2B7
:100295007F03020E2A7D037F0F1209A2200A031293
:1002A500005EC20A227D037F101209A202005E7D54
:1002B500077F11803E7D037F121209A20200597D3E
:1002C500037F13802E7D017F1480287D017F15809B
:1002D500227D017F16801C7D017F1780167D027FA0
:1002E5001980107D057F1A800A7D017F1D80047DA0
:0702F500017F1E1209A22285
:100CFF007829EEF208EFF2782908E22401FFF218C2
:080D0F00E23400F24F70F02203
:100D2F0043F64043B14053B2BFD2FAC2F9D2F8D220
:070D3F00AED2AF43E18022B8
:050E2F00C2FCD2FB2211
:10005E00782BE2FE08E2FFC3941FEE94025007785D
:10006E002F7430F2800ED3EF9424EE940240057874
:10007E002F743CF2782FE224C470022117240C60F6
:10008E000221C4C3782CE294FF18E29401400221AD
:10009E0023782BE2FE08E2FFC394FFEE9401500B8F
:1000AE00C3EF94F7EE94014002215B782BE2FE0839
:1000BE00E2FFC394F7EE9401500BC3EF94EFEE946E
:1000CE000140022177782BE2FE08E2FFC394EFEEA7
:1000DE009401500BC3EF94E6EE9401400221937805
:1000EE002BE2FE08E2FFC394E6EE9401500BC3EF41
:1000FE0094DFEE9401400221AFC3782CE294DF1816
:10010E00E29401400221C421BFC3782CE2947E18F0
:10011E00E2940240047F1221C1782BE2FE08E2FF36
:10012E00C3947EEE9402500DC3EF946EEE94024093
:10013E00047F09807E782BE2FE08E2FFC3946EEE08
:10014E009402500DC3EF945BEE940240047F08803E
:10015E0062782BE2FE08E2FFC3945BEE9402500D30
:10016E00C3EF9455EE940240047F078046782BE24D
:10017E00FE08E2FFC39455EE9402500DC3EF944C6B
:10018E00EE940240047F06802A782BE2FE08E2FFFE
:10019E00C3944CEE9402500DC3EF9444EE9402407F
:1001AE00047F05800EC3782CE2944418E29402502A
:0701BE00057F04120E2A2246
:03005B000208EAAE
:1008EA00C0E0C0D075D000C000C001C006C007C2B9
:1008FA00FCC2FBAFF87830E4F208EFF218E2FE0827
:10090A00E27806CEC313CE13D8F97931F3EE19F390
:10091A00AFE2782DE4F208EFF218E2FE08E278027C
:10092A00C333CE33CED8F9FF7831E22F792EF318BC
:10093A00E23E19F3D007D006D001D000D0D0D0E0E3
:01094A00327A
:100B64002004092000063007033003227838E2B459
:100B7400021F18E22401F218E23400F2D308E294CE
:100B8400DC18E29405400AC204E4F208F2221204DA
:020B9400F92244
:100CE60043B18353B27CE47833F27838F2C204C25B
:090CF60007C2057832F2C20622A1
:0C0DD600E47833F27838F2C204C207223D
:030E3F00D20722B5
:100D46003005127832E204F2E2D3940A4007C20573
:060D5600E4F2120E3F2240
:1004F9007838E224FE602E14607024036002A1B9EA
:1005090030870630800320A6177833E204F2E2C36D
:1005190094015002A1B9E4F278387402F2D20422AB
:10052900E47833F22230870630800320A62078331E
:10053900E204F2E408F208F27833E2C3940240706C
:10054900E4F278387403F2D2047F02020E2AE478C6
:1005590033F27835E22401F218E23400F2D308E2EA
:10056900947018E294174048803F30870630800322
:1005790020A61C7833E204F2E408F208F27833E2A8
:10058900C39402402BE4F27838F2D204D20C22E46C
:100599007833F27835E22401F218E23400F2D30814
:1005A900E2947018E294174007E4F208F27838F2FE
:0105B900221F
:070E1600C20DE47839F2225D
:100CC800300C1A209417200D147F0E120E2A783932
:0E0CD800E204F2E2C394044004E4F2C20C22EF
:0B0DEE00E47839F2C20CC294C20D225E
:0C0DE200120E2F120D17120D46020C64A9
:100C640030871A30801730A614208211783AE204B3
:100C7400F2E2D3943C400A740BF2D21222E4783AA2
:020C8400F2225A
:0A0DF900120E03E4783AF2C212224F
:0A0E0300E4783BF2C201781EF222EF
:100D1700300114200011783BE204F2E2D39405403D
:080D270006120E03120E3F221A
:060E240012094B020C4014
:100C4000301320783DE22401F218E23400F2D30898
:100C5000E294D018E29407400AE4F208F2C285C296
:040C600096C2132203
:0F0D9E00120E1D120DBBC213E4783CF208F222B4
:070E1D0043B52053B6DF22AC
:100D6F0030A50D30000A7F19120E2A120AE0C200B8
:010D7F002251
:100AE0007F007E30120CA7781AE2FD7F007E301264
:100AF0000C187819E2FD7F017E30120C187818E28C
:100B0000FD7F027E30120C187817E2FD7F037E30E5
:100B1000120C187816E2FD7F047E30120C1878153E
:090B2000E2FD7F057E30020C1895
:100D5C0075AF30C2AF75C7AA75C755439F01D2AFE7
:030D6C00020DADC8
:10000E0075AF30120DADC2AF75C7AA75C755539FE8
:04001E00FED2AF223D
:0E0DAD00C2AF75C7AA75C75543A401D2AF22C5
:100CA7007841EEF208EFF2120D5C75AF227841E25F
:100CB700FC08E2FDECF5A7AF058FA6120DAD02000B
:010CC7000E1E
:100C18007841EEF208EFF208EDF2120D5C75AF21A3
:100C28007841E2FC08E2FDECF5A7AF058FA608E2E3
:080C3800F5AE120DAD02000E35
:0E0DBB00C20EC20FE4783FF208F2783EF22238
:10094B0030870930800630A603308216783EE204E9
:10095B00F2E2C39402400FD20ED20FE408F208F277
:10096B008004E4783EF2200E03300F2A7840E22414
:10097B0001F218E23400F2E2FE08E2FFD39488EEB3
:10098B0094134012C20ED3EF9410EE94274007E459
:07099B0018F208F2C20F225E
:100A4500120DC97F807E251200267F967E00120931
:100A5500F5120BEF120D8F120D2F120CE6120E165A
:100A6500120DF9120D9E7E0E7F0DD2147B2C7A018C
:100A75007DDC7C051207807E0E7F3CD2147BB87A24
:100A85000B7DE87C031207801207FD12087980FBB5
:10068100020A45E493A3F8E493A34003F68001F240
:1006910008DFF48029E493A3F85407240CC8C3337A
:1006A100C4540F4420C8834004F456800146F6DF49
:1006B100E4800B0102040810204080900E38E47E93
:1006C100019360BCA3FF543F30E509541FFEE4933E
:1006D100A360010ECF54C025E060A840B8E493A305
:1006E100FAE493A3F8E493A3C8C582C8CAC583CA30
:1006F100F0A3C8C582C8CAC583CADFE9DEE780BEE8
:010E3B0000B6
:1002FC00BB010689828A83E0225002E722BBFE0200
:09030C00E32289828A83E4932232
:1003150075F008758200EF2FFFEE33FECD33CDCC9F
:1003250033CCC58233C5829BED9AEC99E582984022
:100335000CF582EE9BFEED9AFDEC99FC0FD5F0D6FF
:10034500E4CEFBE4CDFAE4CCF9A88222B800C1B929
:100355000059BA002DEC8BF084CFCECDFCE5F0CB67
:10036500F97818EF2FFFEE33FEED33FDEC33FCEBA0
:1003750033FB10D703994004EB99FB0FD8E5E4F95B
:10038500FA227818EF2FFFEE33FEED33FDEC33FC48
:10039500C933C910D7059BE99A4007EC9BFCE99A3C
:1003A500F90FD8E0E4C9FAE4CCFB2275F010EF2F81
:1003B500FFEE33FEED33FDCC33CCC833C810D70781
:1003C5009BEC9AE899400AED9BFDEC9AFCE899F8BC
:0E03D5000FD5F0DAE4CDFBE4CCFAE4C8F9224F
:0E03E300C3E49FFFE49EFEE49DFDE49CFC222B
:0603F1008A838982E47397
:1003F700EC8EF0A4CCC5F0CCCDF8EFA4CEC5F02D93
:10040700FDE43CFCE8A42EC8C5F03DFDE43CFCEF50
:0D041700A4FFE5F028FEE43DFDE43CFC22DE
:00000001FF
